:1000000064C200008AC2000088C2000086C20000EC
:1000100084C2000082C2000080C200007EC20000D4
:100020007CC200007AC2000078C2000076C20000E4
:1000300074C2000072C2000070C200006EC20000F4
:100040000C94870C6AC200000C94650E0C94A80EE8
:1000500064C2000062C2000060C200005EC2000014
:100060005CC200005AC200002D2D2D2D2D2D2D2DEE
:100070002D2D2D2D2D2D2D2D2D2D2D0020202052DF
:10008000414D205265706F7274202020002D2D2D5F
:100090002D2D2D2D2D2D2D2D2D2D2D2D2D2D2D2D90
:1000A000001B5B303B33326D0020616C6C2075733C
:1000B00065642052414D3A20001B5B313B33326D69
:1000C000001B5B303B33326D0020616C6C2066722C
:1000D00065652052414D3A20001B5B313B33326D48
:1000E000001B5B303B33326D0020726563656E74BC
:1000F0002075736564203A20001B5B313B33326D01
:10010000001B5B306D002D2D2D2D2D2D2D2D2D2D1A
:100110002D2D2D2D2D2D2D2D2D002D2D2D2D2D2D3C
:100120002D2D2D2D2D2D2D2D2D2D2D2D2D2D2D2DFF
:10013000002042656E63686D61726B205265706F5E
:1001400072742020002D2D2D2D2D2D2D2D2D2D2D9A
:100150002D2D2D2D2D2D2D2D2D2D2D001B5B303BCF
:1001600033326D0020757365642074696D653A20C3
:10017000001B5B313B33326D00207573001B5B301D
:100180003B33336D0020757365642074696D653A87
:1001900020001B5B313B33336D00206E73001B5B13
:1001A000303B33326D00206379636C657320203AF5
:1001B00020001B5B313B33326D001B5B306D001B3D
:1001C0005B303B33326D002066726571656E63791A
:1001D000203A20001B5B313B33326D00206B487AA4
:1001E000001B5B306D001B5B303B33336D002066C2
:1001F000726571656E6379203A20001B5B313B3379
:10020000336D00204D487A001B5B306D00287275FD
:100210006E6E696E672061742000204D487A290057
:100220002D2D2D2D2D2D2D2D2D2D2D2D2D2D2D2DFE
:100230002D2D2D2D2D2D002D2D2D2D2D2D2D2D2D1B
:100240002D2D2D2D2D2D2D2D2D2D2D2D2D00204203
:10025000656E63686D61726B205265706F72742099
:1002600020002D2D2D2D2D2D2D2D2D2D2D2D2D2DF8
:100270002D2D2D2D2D2D2D2D001B5B303B33326D63
:100280000020757365642074696D653A20001B5BFE
:10029000313B33326D00207573001B5B303B3333D1
:1002A0006D0020757365642074696D653A20001BCC
:1002B0005B313B33336D00206E73001B5B303B338F
:1002C000326D00206379636C657320203A20001B37
:1002D0005B313B33326D001B5B306D001B5B303B91
:1002E00033326D002066726571656E6379203A2045
:1002F000001B5B313B33326D00206B487A001B5B87
:10030000306D001B5B303B33336D002066726571CE
:10031000656E6379203A20001B5B313B33336D00FF
:10032000204D487A001B5B306D002872756E6E6937
:100330006E672061742000204D487A29002D2D2DF4
:100340002D2D2D2D2D2D2D2D2D2D2D2D2D2D2D2DDD
:100350002D2D2D002D2D2D2D2D2D2D2D2D2D2D2DFA
:100360002D2D2D2D2D2D2D2D2D2D00202053706563
:100370006564205265706F72742020002D2D2D2D24
:100380002D2D2D2D2D2D2D2D2D2D2D2D2D2D2D2D9D
:100390002D2D001B5B303B33326D00206D65616E8F
:1003A00020667265713A20001B5B313B33326D0071
:1003B00020487A001B5B303B33336D00206D656154
:1003C0006E20667265713A20001B5B313B33336DE2
:1003D00000206B487A001B5B303B33326D00206C91
:1003E0006F6F7020667265713A20001B5B313B3382
:1003F000326D0020487A001B5B303B33336D0020A8
:100400006C6F6F7020667265713A20001B5B313B28
:1004100033336D00206B487A001B5B303B33326D09
:1004200000206C6F6F702074696D653A20001B5B53
:10043000313B33326D00206D73001B5B306D001B50
:100440005B303B33336D00206C6F6F702074696DCF
:10045000653A20001B5B313B33336D002075730020
:100460001B5B306D00206D6F64756C6F2020203A2F
:1004700020002D2D2D2D2D2D2D2D2D2D2D2D2D2DE6
:100480002D2D2D2D2D2D2D2D000102040810204085
:100490008001020408102001020408102004040452
:1004A000040404040402020202020203030303031D
:1004B0000300000000250028002B0000000000249D
:1004C0000027002A0000500CB60F11241FBECFEFEA
:1004D000D8E0DEBFCDBF11E0A0E0B1E0E8E5F9E291
:1004E00002C005900D92A232B107D9F711E0A2E245
:1004F000B1E001C01D92AC3EB107E1F714E0CAECD7
:10050000D4E004C02297FE010E94A614C63CD10785
:10051000C9F70E94F90F0C94AA1472CD6F927F92C2
:100520008F929F92AF92BF92CF92DF92EF92FF9203
:100530000F931F93CF93DF93FB0160807180660C54
:10054000771C660C771C660C771C660C771C0E9467
:10055000E50C6B017C0161147104D9F180E090E03D
:10056000019686159705E1F706C023B10196861519
:100570009705D9F755C00E94E50C6C197D098E09C5
:100580009F090E946513C62ED72EE82EF92EB301BF
:1005900080E090E00E9465139B01AC0160E070E098
:1005A00080E891E40E94CC12062F172FD82FC92F74
:1005B0002C2D3D2D4E2D5F2D0E941B14C62ED72EA7
:1005C000E82EF92E0E94E50C4B015C0180E090E0E2
:1005D000CCCF0E94E50C6C197D098E099F090E9401
:1005E0006513C62ED72EE82EF92E20E030E0A901A3
:1005F00060E070E080E891E40E94CC12062F172F93
:10060000D82FC92F2C2D3D2D4E2D5F2D0E941B1450
:10061000C62ED72EE82EF92E0E94E50C4B015C0168
:100620000E94E50C681979098A099B090E946513E3
:10063000262F372F482F592F602F712F8D2F9C2F4A
:100640000E941B142C2D3D2D4E2D5F2D0E946312F8
:10065000DF91CF911F910F91FF90EF90DF90CF909E
:10066000BF90AF909F908F907F906F9008956F9202
:100670007F928F929F92AF92BF92CF92DF92EF9232
:10068000FF920F931F93CF93DF93FB0160807180E4
:10069000660C771C660C771C660C771C660C771C46
:1006A0000E94E50C6B017C0161147104D9F180E0BA
:1006B00090E0019686159705E1F706C02D9A019600
:1006C00086159705D9F755C00E94E50C6C197D0970
:1006D0008E099F090E946513C62ED72EE82EF92E8B
:1006E000B30180E090E00E9465139B01AC0160E0E3
:1006F00070E080E891E40E94CC12062F172FD82FCB
:10070000C92F2C2D3D2D4E2D5F2D0E941B14C62E62
:10071000D72EE82EF92E0E94E50C4B015C0180E0FB
:1007200090E0CCCF0E94E50C6C197D098E099F09E1
:100730000E946513C62ED72EE82EF92E20E030E059
:10074000A90160E070E080E891E40E94CC12062FDD
:10075000172FD82FC92F2C2D3D2D4E2D5F2D0E94E8
:100760001B14C62ED72EE82EF92E0E94E50C4B0145
:100770005C010E94E50C681979098A099B090E94AD
:100780006513262F372F482F592F602F712F8D2F4C
:100790009C2F0E941B142C2D3D2D4E2D5F2D0E9451
:1007A0006312DF91CF911F910F91FF90EF90DF9037
:1007B000CF90BF90AF909F908F907F906F90089553
:1007C000CF93DF9300D0CDB7DEB780910201909137
:1007D0000301009711F48CEE91E09E012F5F3F4FD3
:1007E000281B390B822F932F0F900F90DF91CF9101
:1007F00008950F931F93CF93DF93E2DF082F192FF4
:1008000082E491E00E947E1082E491E00E94120E48
:1008100068E670E082E491E00E94321082E491E0A8
:100820000E94120E82E491E00E947E1082E491E028
:100830000E94120E6CE770E082E491E00E94321098
:1008400082E491E00E94120E82E491E00E947E1008
:1008500082E491E00E94120E6DE870E082E491E083
:100860000E94321082E491E00E94120E82E491E034
:100870000E947E1082E491E00E94120EC02FD12FC0
:1008800061EA70E082E491E00E94321082E491E03B
:100890000E94120E69EA70E082E491E00E94321038
:1008A00082E491E00E94120E69EB70E082E491E034
:1008B0000E94321082E491E00E94120E20E038E0A3
:1008C000B9016C1B7D0B4AE050E082E491E00E948C
:1008D000171182E491E00E94120E82E491E00E94DE
:1008E0007E1082E491E00E94120E61EC70E082E4DE
:1008F00091E00E94321082E491E00E94120E69ECB5
:1009000070E082E491E00E94321082E491E00E9463
:10091000120E69ED70E082E491E00E94321082E4F0
:1009200091E00E94120E4AE050E0602F712F82E4A5
:1009300091E00E945A1182E491E00E94120E82E43A
:1009400091E00E947E1082E491E00E94120E0091DC
:100950000001109101010C1B1D0B61EE70E082E49F
:1009600091E00E94321082E491E00E94120E69EE42
:1009700070E082E491E00E94321082E491E00E94F3
:10098000120E69EF70E082E491E00E94321082E47E
:1009900091E00E94120E4AE050E0B80182E491E03A
:1009A0000E94171182E491E00E94120E61E071E052
:1009B00082E491E00E94321082E491E00E94120EE3
:1009C00082E491E00E947E1082E491E00E94120E87
:1009D00066E071E082E491E00E94321082E491E0EE
:1009E0000E94120E82E491E00E947E1082E491E067
:1009F0000E94120ED0930101C0930001DF91CF91AC
:100A00001F910F9108958F929F92AF92BF92EF9294
:100A1000FF920F931F93CF93DF9300D000D0CDB7F9
:100A2000DEB740E051EE60E070E082E491E00E94C9
:100A3000330F40E051EE65EF75E082E491E00E94F3
:100A40005D1261E08DE00E94750D62E08CE00E9415
:100A5000750D84E690E09C838B8382E491E00E9494
:100A60007E1082E491E00E94120E6AE171E082E45D
:100A700091E00E94321082E491E00E94120E82E422
:100A800091E00E947E1082E491E00E94120E61E3E8
:100A900071E082E491E00E94321082E491E00E94D1
:100AA000120E82E491E00E947E1082E491E00E94A6
:100AB000120E65E471E082E491E00E94321082E45B
:100AC00091E00E94120E82E491E00E947E1082E486
:100AD00091E00E94120EBE016D5F7F4F80E01EDD2F
:100AE00020E030E040E85DE30E941B14E62EF72E84
:100AF000082F192F20E030E040E85FE30E94171430
:100B000018160CF082C06CE571E082E491E00E945E
:100B1000321082E491E00E94120E64E671E082E4F9
:100B200091E00E94321082E491E00E94120E61E78F
:100B300071E082E491E00E94321082E491E00E9430
:100B4000120E22E030E04E2D5F2D602F712F82E4D7
:100B500091E00E945B1282E491E00E94120E69E72C
:100B600071E082E491E00E94321082E491E00E9400
:100B7000120E82E491E00E947E1082E491E00E94D5
:100B8000120EBE016D5F7F4F80E0C8DC4B015C013F
:100B90006EE971E082E491E00E94321082E491E01B
:100BA0000E94120E66EA71E082E491E00E94321027
:100BB00082E491E00E94120E62EB71E082E491E027
:100BC0000E94321082E491E00E94120E22E030E096
:100BD000B501A40182E491E00E945B1282E491E0FD
:100BE0000E94120E6AEB71E082E491E00E943210E2
:100BF00082E491E00E94120E82E491E00E947E1055
:100C000082E491E00E94120E8BC06DE771E082E4F5
:100C100091E00E94321082E491E00E94120E65E899
:100C200071E082E491E00E94321082E491E0FAD710
:100C300062E971E082E491E00E94321082E491E086
:100C4000F1D720E030E04AE754E46E2D7F2D802F6D
:100C5000912F0E941B14AB01BC0122E030E082E422
:100C600091E00E945B1282E491E0DCD76AE971E0D6
:100C700082E491E00E94321082E491E0D3D782E4D2
:100C800091E00E947E1082E491E0CCD7BE016D5FBE
:100C90007F4F80E043DC4B015C016EE971E082E450
:100CA00091E00E94321082E491E0BCD766EA71E0E4
:100CB00082E491E00E94321082E491E0B3D762EBCB
:100CC00071E082E491E00E94321082E491E0AAD7C0
:100CD00022E030E0B501A40182E491E00E945B12C1
:100CE00082E491E09FD76AEB71E082E491E00E9498
:100CF000321082E491E096D782E491E00E947E1067
:100D000082E491E08FD720E030E040E85FE36E2D91
:100D10007F2D802F912F0E94171418160CF04AC0B7
:100D20006FEB71E082E491E00E94321082E491E086
:100D300079D767EC71E082E491E00E94321082E49E
:100D400091E070D764ED71E082E491E00E9432108E
:100D500082E491E067D72E2D3F2D402F512F60E088
:100D600070E08AE794E40E94CC12AB01BC0122E05F
:100D700030E082E491E00E945B1282E491E052D77D
:100D80006CED71E082E491E00E94321082E491E027
:100D900049D761EE71E082E491E00E94321082E472
:100DA00091E040D782E491E00E947E1082E491E0DD
:100DB00039D749C066EE71E082E491E00E943210BA
:100DC00082E491E02FD76EEE71E082E491E00E9420
:100DD000321082E491E026D76BEF71E082E491E07B
:100DE0000E94321082E491E01DD72E2D3F2D402F1E
:100DF000512F60E070E080E89FE30E94CC12AB01CD
:100E0000BC0122E030E082E491E00E945B1282E4C7
:100E100091E008D763E072E082E491E00E94321032
:100E200082E491E0FFD668E072E082E491E00E9403
:100E3000321082E491E0F6D682E491E00E947E10C6
:100E400082E491E0EFD66DE072E082E491E00E94EE
:100E5000321082E491E0E6D62AE030E040E150E052
:100E600060E070E082E491E00E941C1182E491E075
:100E7000D9D66AE172E082E491E00E94321082E405
:100E800091E0D0D682E491E00E947E1082E491E06D
:100E9000C9D660E272E082E491E00E94321082E4FE
:100EA00091E0C0D682E491E00E947E1082E491E05D
:100EB000B9D684E690E09A83898382E491E00E9427
:100EC0007E1082E491E0AED667E372E082E491E0C6
:100ED0000E94321082E491E0A5D682E491E00E9463
:100EE0007E1082E491E09ED66EE472E082E491E0AE
:100EF0000E94321082E491E095D682E491E00E9453
:100F00007E1082E491E08ED662E672E082E491E0A7
:100F10000E94321082E491E085D682E491E00E9442
:100F20007E1082E491E07ED6BE016F5F7F4F80E04D
:100F30009EDB20E030E040E85DE30E941B14E62EDB
:100F4000F72E082F192F20E030E040E85FE30E94E1
:100F5000171418160CF076C069E772E082E491E08D
:100F60000E94321082E491E05DD661E872E082E492
:100F700091E00E94321082E491E054D66EE872E073
:100F800082E491E00E94321082E491E04BD622E0AC
:100F900030E04E2D5F2D602F712F82E491E00E9492
:100FA0005B1282E491E03ED666E972E082E491E071
:100FB0000E94321082E491E035D682E491E00E94F2
:100FC0007E1082E491E02ED6BE016F5F7F4F80E0FD
:100FD0004EDB4B015C016BEB72E082E491E00E941E
:100FE000321082E491E01ED663EC72E082E491E07C
:100FF0000E94321082E491E015D66FEC72E082E438
:1010000091E00E94321082E491E00CD622E030E0C0
:10101000B501A40182E491E00E945B1282E491E0B8
:1010200001D667ED72E082E491E00E94321082E422
:1010300091E0F8D582E491E00E947E1082E491E094
:10104000F1D583C06AE972E082E491E00E94321037
:1010500082E491E0E7D562EA72E082E491E00E94E6
:10106000321082E491E0DED56FEA72E082E491E032
:10107000F9D782E491E0D6D520E030E04AE754E4A5
:101080006E2D7F2D802F912F0E941B14AB01BC0170
:1010900022E030E082E491E00E945B1282E491E081
:1010A000C1D567EB72E082E491E0DCD782E491E0A5
:1010B000B9D582E491E00E947E1082E491E0B2D53D
:1010C000BE016F5F7F4F80E0D2DA4B015C016BEBBA
:1010D00072E082E491E0C6D782E491E0A3D563ECAC
:1010E00072E082E491E0BED782E491E09BD56FECA0
:1010F00072E082E491E0B6D782E491E093D522E0F9
:1011000030E0B501A40182E491E00E945B1282E428
:1011100091E088D567ED72E082E491E0A3D782E4A4
:1011200091E080D582E491E0E9D782E491E07AD53C
:1011300020E030E040E85FE36E2D7F2D802F912F7F
:101140000E94171418160CF044C06CED72E082E493
:1011500091E088D782E491E065D564EE72E082E4A4
:1011600091E080D782E491E05DD561EF72E082E4A6
:1011700091E078D782E491E055D52E2D3F2D402F78
:10118000512F60E070E08AE794E40E94CC12AB013A
:10119000BC0122E030E082E491E00E945B1282E434
:1011A00091E040D569EF72E082E491E05BD782E4A0
:1011B00091E038D56EEF72E082E491E053D782E49B
:1011C00091E030D582E491E099D782E491E02AD58C
:1011D00043C063E073E082E491E044D782E491E0AD
:1011E00021D56BE073E082E491E03CD782E491E0AA
:1011F00019D568E173E082E491E034D782E491E0AC
:1012000011D52E2D3F2D402F512F60E070E080E84A
:101210009FE30E94CC12AB01BC0122E030E082E4EB
:1012200091E00E945B1282E491E0FCD460E273E002
:1012300082E491E017D782E491E0F4D465E273E0B0
:1012400082E491E00FD782E491E0ECD482E491E073
:1012500055D782E491E0E6D46AE273E082E491E05B
:1012600001D782E491E0DED42AE030E040E150E0B2
:1012700060E070E082E491E0DFD782E491E0D2D4D4
:1012800067E373E082E491E0EDD682E491E0CAD4B2
:1012900082E491E033D782E491E0C4D46DE373E05B
:1012A00082E491E0DFD682E491E0BCD482E491E074
:1012B00025D782E491E0B6D49CDA0F900F900F907E
:1012C0000F90DF91CF911F910F91FF90EF90BF9002
:1012D000AF909F908F900895CF92DF92EF92FF9200
:1012E0000F931F93CF93DF93609122016F5F609301
:1012F000220170E080E090E095D3E1E3F1E08081AD
:101300009181A281B381C12CD12C7601C394C80EE6
:10131000D91EEA1EFB1EC082D182E282F382609156
:101320002D0170912E0180912F01909130018B0140
:101330009C0101501109210931090C211D212E2187
:101340003F21012B022B032B09F0A1C2C5E3D1E001
:101350000E9465139B01AC01688179818A819B8120
:101360000E946412688379838A839B831AD30E94C4
:101370006513062F172FD82FC92F209129013091DF
:101380002A0140912B0150912C010E946312C62E1C
:10139000D72EE82EF92E209125013091260188EED6
:1013A00093E0289FB001299F700D389F700D112484
:1013B000882777FD8095982F0E9467139B01AC01C9
:1013C0006C2D7D2D8E2D9F2D0E94171418160CF05C
:1013D0003EC2209127013091280188EE93E0289F9A
:1013E000B001299F700D389F700D1124882777FD5B
:1013F0008095982F0E9467139B01AC016C2D7D2D69
:101400008E2D9F2D0E941714181674F4EDE2F1E052
:1014100080819181A281B381B695A7959795879593
:1014200080839183A283B38360912D0170912E01FB
:1014300080912F01909130010E9465132C2D3D2D3C
:101440004E2D5F2D0E94CC12C62ED72EE82EF92EDF
:10145000402F512F6D2F7C2F4093290150932A014B
:1014600060932B0170932C01202F312F4D2F5C2F77
:10147000609135017091360180913701909138016A
:101480000E94CC12D62FC72F082F192F82E491E08B
:1014900035D682E491E0C6D364E573E082E491E05E
:1014A000E1D582E491E0BED382E491E027D682E4E4
:1014B00091E0B8D36BE673E082E491E0D3D582E4A7
:1014C00091E0B0D382E491E019D682E491E0AAD30E
:1014D0006CE773E082E491E0C5D582E491E0A2D3A9
:1014E00082E491E00BD682E491E09CD320E030E0EE
:1014F00040E85FE36D2F7C2F802F912F0E94C81250
:1015000088230CF03BC063E973E082E491E0AAD544
:1015100082E491E087D36BE973E082E491E0A2D5A5
:1015200082E491E07FD368EA73E082E491E09AD5A7
:1015300082E491E077D320E030E04AE754E46D2F75
:101540007C2F802F912F0E941B14AB01BC0122E045
:1015500030E082E491E0AFD782E491E063D360EBC6
:1015600073E082E491E07ED582E491E05BD382E493
:1015700091E0C4D582E491E055D332C064EB73E0CE
:1015800082E491E06FD582E491E04CD36CEB73E0A0
:1015900082E491E067D582E491E044D369EC73E0A2
:1015A00082E491E05FD582E491E03CD322E030E038
:1015B0004D2F5C2F602F712F82E491E07CD782E465
:1015C00091E030D361ED73E082E491E04BD582E4A9
:1015D00091E028D382E491E091D582E491E022D396
:1015E00020E030E040E85FE36C2D7D2D8E2D9F2DB7
:1015F000CFD788230CF03BC066ED73E082E491E026
:1016000031D582E491E00ED36EED73E082E491E097
:1016100029D582E491E006D36BEE73E082E491E099
:1016200021D582E491E0FED220E030E04AE754E4A4
:101630006C2D7D2D8E2D9F2D0E941B14AB01BC01A6
:1016400022E030E082E491E036D782E491E0EAD211
:1016500063EF73E082E491E005D582E491E0E2D2A9
:1016600082E491E04BD582E491E0DCD232C067EFB6
:1016700073E082E491E0F6D482E491E0D3D26FEF9C
:1016800073E082E491E0EED482E491E0CBD26CE0AE
:1016900074E082E491E0E6D482E491E0C3D222E0F7
:1016A00030E04C2D5D2D6E2D7F2D82E491E003D72F
:1016B00082E491E0B7D264E174E082E491E0D2D4B4
:1016C00082E491E0AFD282E491E018D582E491E027
:1016D000A9D220E030E040E85FE36D2F7C2F802F1F
:1016E000912F56D788230CF042C069E174E082E460
:1016F00091E0B8D482E491E095D261E274E082E4B2
:1017000091E0B0D482E491E08DD26EE274E082E4A4
:1017100091E0A8D482E491E085D22D2F3C2F402F78
:10172000512F60E070E080E89FE336D7AB01BC0149
:1017300022E030E082E491E0BED682E491E072D211
:1017400066E374E082E491E08DD482E491E06AD2B1
:101750006AE374E082E491E085D482E491E062D2AD
:1017600082E491E0CBD482E491E05CD241C06FE3AB
:1017700074E082E491E076D482E491E053D267E4AD
:1017800074E082E491E06ED482E491E04BD264E5AF
:1017900074E082E491E066D482E491E043D22D2F9C
:1017A0003C2F402F512F60E070E08AE794E4F4D69C
:1017B000AB01BC0122E030E082E491E07CD682E41F
:1017C00091E030D26CE574E082E491E04BD482E4A5
:1017D00091E028D260E674E082E491E043D482E4B0
:1017E00091E020D282E491E089D482E491E01AD29F
:1017F000C0902D01D0902E01E0902F01F09030018B
:1018000065E674E082E491E02DD482E491E00AD2AE
:101810002AE030E0B701A60182E491E0FBD482E443
:1018200091E000D282E491E069D482E491E0FAD1BF
:1018300062E774E082E491E015D482E491E0F2D1B1
:1018400082E491E05BD482E491E0ECD120C0CDE26F
:10185000D1E0C880D980EA80FB8005E311E0C701B0
:10186000B60133D79B01AC01F8016081718182819F
:10187000938129D6F8016083718382839383CC0C92
:10188000DD1CEE1CFF1CC882D982EA82FB82DF913C
:10189000CF911F910F91FF90EF90DF90CF9008951F
:1018A00081E090E0909326018093250183E090E011
:1018B00090932801809327011092290110922A0108
:1018C00010922B0110922C0182E090E0A0E0B0E099
:1018D00080932D0190932E01A0932F01B09330019E
:1018E00010923101109232011092330110923401A2
:1018F0001092350110923601109237011092380182
:1019000080E094E0909324018093230108951F9236
:101910000F920FB60F9211242F933F938F939F93A3
:10192000AF93BF938091390190913A01A0913B010F
:10193000B0913C0130914101232F2D5F2D3720F4D0
:101940000196A11DB11D05C0232F2A570296A11D86
:10195000B11D209341018093390190933A01A093E6
:101960003B01B0933C0180913D0190913E01A091DB
:101970003F01B09140010196A11DB11D80933D0131
:1019800090933E01A0933F01B0934001BF91AF916E
:101990009F918F913F912F910F900FBE0F901F90AD
:1019A00018950F931F938FB7F894009139011091F8
:1019B0003A0120913B0130913C018FBF602F712F84
:1019C000822F932F1F910F9108950F931F939FB70D
:1019D000F89400913D0110913E0120913F0130911A
:1019E000400186B5A89B06C08F3F21F00F5F1F4FB7
:1019F0002F4F3F4F9FBF322F212F102F0027080F4F
:101A0000111D211D311D000F111F221F331F000F3B
:101A1000111F221F331F602F712F822F932F1F91B1
:101A20000F910895CF92DF92EF92FF92CF93DF93C1
:101A30006B017C01CADFEB01C114D104E104F104A4
:101A400091F0C3DF6C1B7D0B683E734038F081E082
:101A5000C81AD108E108F108C851DC4FC114D104FB
:101A6000E104F10471F7DF91CF91FF90EF90DF90E7
:101A7000CF900895789484B5826084BD84B58160E8
:101A800084BD85B5826085BD85B5816085BDEEE686
:101A9000F0E0808181608083E1E8F0E01082808165
:101AA00082608083808181608083E0E8F0E08081D3
:101AB00081608083E1EBF0E0808184608083E0EBF3
:101AC000F0E0808181608083EAE7F0E080818460DB
:101AD0008083808182608083808181608083808137
:101AE000806880831092C1000895CF93DF9390E0C7
:101AF000FC01E757FB4F4491FC01E356FB4F8491F7
:101B0000882391F190E0880F991FFC01E554FB4F69
:101B100025913491A22FB32F8F549B4FFC018591B7
:101B20009491C82FD92F61110BC08FB7F8949C9155
:101B3000409594239C93E8814E2348838FBF14C023
:101B4000623061F48FB7F8942C91942F9095922382
:101B50009C93E8814E2B48838FBF06C08FB7F894C3
:101B6000EC914E2B4C938FBFDF91CF910895FC01E8
:101B700084859585FC01E05CFF4F20813181FC016B
:101B8000EE5BFF4F80819181281B390B2F73332728
:101B9000822F932F0895FC0184859585FC01E05CDC
:101BA000FF4F40815181FC01EE5BFF4F208131816D
:101BB0004217530759F0FC01EE5BFF4F2081318142
:101BC000FC01E20FF31F208130E002C02FEF3FEF56
:101BD000822F932F0895FC0184859585FC01E05C9C
:101BE000FF4F40815181FC01EE5BFF4F208131812D
:101BF0004217530791F0FC01EE5BFF4F20813181CA
:101C0000DC01A20FB31F2C918081918101968F730B
:101C100099279183808330E002C02FEF3FEF822F1E
:101C2000932F0895FC0181A1882329F0A489B58907
:101C30008C9186FFFBCF11A20895DC011E968D9139
:101C40009C911F97FC01E05CFF4F408151814F5FE9
:101C50005F4F4F735527FC01EE5BFF4F20813181B1
:101C600024173507D9F3FC01E05CFF4F2081318157
:101C7000FC01E20FF31F60831E96ED91FC911F970C
:101C8000E05CFF4F518340835696ED91FC9157974E
:101C9000408121E030E0C9015F960C905F9702C05F
:101CA000880F991F0A94E2F7842B808381E0919634
:101CB0008C9391975496ED91FC9155978081806417
:101CC000808381E090E0089508951F920F920FB6EF
:101CD0000F9211242F933F934F938F939F93AF9322
:101CE000BF93EF93FF938091C00082FD1AC0409193
:101CF000C6008091E8019091E90101968F739927C0
:101D00002091EA013091EB018217930761F0E8EE30
:101D1000F1E0A081B181A855BE4F4C93918380839F
:101D200002C08091C600FF91EF91BF91AF919F914A
:101D30008F914F913F912F910F900FBE0F901F9059
:101D4000189582E491E013DF892B09F0BDCF089547
:101D50001F920F920FB60F9211242F933F938F93E0
:101D60009F93AF93BF93EF93FF932091A401309182
:101D7000A5018091A6019091A7012817390731F498
:101D8000E1ECF0E080818F7D808310C0E6EAF1E035
:101D9000A081B181AC59BE4F2C9180819181019677
:101DA0008F739927918380832093C600FF91EF91D1
:101DB000BF91AF919F918F913F912F910F900FBE47
:101DC0000F901F9018954F925F926F927F928F9213
:101DD0009F92AF92BF92CF92DF92EF92FF920F93BA
:101DE0001F93CF93DF93CDB7DEB7FC01138212822E
:101DF0000F2EF8EE4F2EF3E05F2E612C712CF02D9C
:101E0000448255826682778288E091E09183808364
:101E10007587648757874687318B208B138B028B9E
:101E2000F58AE48AD78AC68AB18EA08E938E828E76
:101E30008B89848F8C89858F8D89868F8E89878FFA
:101E40008F8980A3DF91CF911F910F91FF90EF9029
:101E5000DF90CF90BF90AF909F908F907F906F90CA
:101E60005F904F900895CF92DF92EF92FF92CF93C1
:101E7000DF93EC016A017B01411581EE5807610592
:101E8000710501F1EC89FD8981E090E008A002C0B4
:101E9000880F991F0A94E2F7808360E079E08DE370
:101EA00090E0A70196012ED5DA01C9010197A10999
:101EB000B109B695A795979587959C01211580E165
:101EC0003807A0F0EC89FD89108260E874E88EE1A3
:101ED00090E0A701960116D5DA01C9010197A10981
:101EE000B109B695A795979587959C01E889F989D9
:101EF0003083EA89FB89208319A2EE89FF8940811A
:101F000081E090E09C010C8C02C0220F331F0A94E8
:101F1000E2F7242B2083EE89FF8940819C010D8C00
:101F200002C0220F331F0A94E2F7242B2083EE898C
:101F3000FF8940819C010E8C02C0220F331F0A943E
:101F4000E2F7242B2083EE89FF8920810F8C02C0C9
:101F5000880F991F0A94E2F7809582238083DF918E
:101F6000CF91FF90EF90DF90CF9008958F929F9246
:101F7000AF92BF92CF92DF92EF92FF920F931F9397
:101F800081E08F9385E08F9387E08F9383E08F9339
:101F900084E08F930F2EF6EC8F2E912CF02D0F2EC8
:101FA000F2ECAF2EB12CF02D0F2EF1ECCF2ED12C68
:101FB000F02D0F2EF0ECEF2EF12CF02D04EC10E0B4
:101FC00025EC30E044E651E068EA71E082E491E01B
:101FD000FADE0F900F900F900F900F901F910F91BE
:101FE000FF90EF90DF90CF90BF90AF909F908F9039
:101FF000089540DD0E9403056FD981EA9EE0892B98
:1020000019F09FDE69D9FDCF67D9FECFCF92DF925D
:10201000EF92FF920F931F93CF93DF937C016B019D
:10202000EA01209791F000E010E0D6016D916D017A
:10203000D701ED91FC910190F081E02DC701099548
:10204000080F191F219789F702C000E010E0802FC8
:10205000912FDF91CF911F910F91FF90EF90DF9023
:10206000CF900895EF92FF920F931F93CF93DF933A
:102070007C01EB012196FB016491662389F000E06D
:1020800010E0F701A081B181ED91FC91C7010995A4
:10209000080F191FFE01219664916111F2CF02C051
:1020A00000E010E0802F912FDF91CF911F910F91D1
:1020B000FF90EF9008956115710599F0E62FF72FC5
:1020C000DF010D900020E9F71197AD014E1B5F0B6A
:1020D000DC01ED91FC910280F381E02D09959C01DA
:1020E00002C020E030E0822F932F0895DC01ED91B3
:1020F000FC910190F081E02D099508950F931F93B5
:10210000CF93DF93EC016DE0F1DF8C016AE0CE014B
:10211000EDDF9C01200F311F822F932FDF91CF9194
:102120001F910F9108955F926F927F928F929F926D
:10213000AF92BF92CF92DF92EF92FF920F931F93D5
:10214000CF93DF93CDB7DEB7A1970FB6F894DEBF7C
:102150000FBECDBF3C016A017B01522E19A281E066
:10216000821720F00F2EFAE05F2EF02D8E010F5D0A
:102170001F4F852C912CA12CB12CC701B601A501B4
:102180009401C0D38C2D529E801911240150110945
:102190008A3014F4805D01C0895CD8018C93C22E12
:1021A000D32EE42EF52EC114D104E104F10429F755
:1021B00001151105A9F0E02FF12FDF010D9000208E
:1021C000E9F71197AD014E1B5F0BD301ED91FC9127
:1021D0000280F381E02DB801C30109959C0102C082
:1021E00020E030E0822F932FA1960FB6F894DEBF47
:1021F0000FBECDBFDF91CF911F910F91FF90EF9058
:10220000DF90CF90BF90AF909F908F907F906F9016
:102210005F9008952115310549F4DC01ED91FC91A1
:102220000190F081E02D642F099508957CCF9A01EB
:10223000AB0160E070E0EECFCF92DF92EF92FF92C1
:102240000F931F93CF93DF93EC016A017B0121155C
:10225000310549F4E881F9810190F081E02D642F86
:1022600009959C011CC02A303105B9F477238CF400
:102270006DE23CDF8C0144275527BA014C195D09FA
:102280006E097F092AE0CE014EDF9C01200F311F2D
:1022900006C02AE048DF9C0102C045DF9C01822F76
:1022A000932FDF91CF911F910F91FF90EF90DF90CF
:1022B000CF9008959A01AB01662757FD6095762F60
:1022C000BBCF5F926F927F928F929F92AF92BF929D
:1022D000CF92DF92EF92FF920F931F93CF93DF93F2
:1022E0008C016A017B01C22F9A01AB01C701B601C3
:1022F00005D3882331F064E171E0C801DCDE5C01C4
:1023000086C046015701E894B7F82FEF3FEF4FE73B
:102310005FE7C501B401F2D281110FC02FEF3FEF8B
:102320004FE75FE7C501B40133D1181634F468E113
:1023300071E0C801C0DE5C016AC02FEF3FEF4FE7DC
:102340005FE4C701B60173D2181634F46CE171E092
:10235000C801B1DE5C015BC02FEF3FEF4FE75FECE0
:10236000C701B60115D1882334F46CE171E0C801CE
:10237000A2DE5C014CC020E030E0A901C701B6013B
:1023800007D188234CF46DE2C801B0DE3C01F7FAB6
:10239000F094F7F8F09402C0612C712CCC2309F46E
:1023A00068C0D0E060E070E080E09FE320E030E0D3
:1023B00040E251E4F1D0DF5FDC13F8CF2BC020E026
:1023C00030E040E251E4652D782D892D9D2F33D2E8
:1023D000C62ED72EE82EF92E47D14B014AE050E009
:1023E000C80168DFA80EB91EB401882777FD809563
:1023F000982F6DD19B01AC016C2D7D2D8E2D9F2DC5
:1024000062D0562E872E982ED92FC150C1F68A2D14
:102410009B2D41C0262F372F482F592FC701B601BA
:1024200053D0D62F872E982EB92E23D1C62ED72E35
:10243000E82EF92E4AD19B01AC016D2F782D892D04
:102440009B2D41D0562E872E982ED92F2AE030E092
:102450004C2D5D2D6E2D7F2DC801DCDE5C0160E210
:1024600071E0C80128DE8A0D9B1D5C01A60CB71C1B
:10247000A6CF20E030E040E05FE3C701B60124D002
:10248000F8D0AB01BC012AE030E0C801C3DE5C013A
:10249000A60CB71CBCCFDF91CF911F910F91FF907D
:1024A000EF90DF90CF90BF90AF909F908F907F90F4
:1024B0006F905F90089505CF0895FC014483558384
:1024C0006683778308955058BB27AA270ED075C11D
:1024D00066D130F06BD120F031F49F3F11F41EF43F
:1024E0005BC10EF4E095E7FB51C1E92F77D180F392
:1024F000BA17620773078407950718F071F49EF501
:102500008FC10EF4E0950B2EBA2FA02D0B01B9014F
:1025100090010C01CA01A0011124FF27591B99F059
:10252000593F50F4503E68F11A16F040A22F232F65
:10253000342F4427585FF3CF469537952795A795B5
:10254000F0405395C9F77EF41F16BA0B620B730B5C
:10255000840BBAF09150A1F0FF0FBB1F661F771FCD
:10256000881FC2F70EC0BA0F621F731F841F48F482
:10257000879577956795B795F7959E3F08F0B3CF08
:102580009395880F08F09927EE0F979587950895F2
:10259000D9D008F481E008950CD00FC107D140F0E4
:1025A000FED030F021F45F3F19F0F0C0511139C175
:1025B000F3C014D198F39923C9F35523B1F3951BB4
:1025C000550BBB27AA2762177307840738F09F5F54
:1025D0005F4F220F331F441FAA1FA9F333D00E2EC3
:1025E0003AF0E0E830D091505040E695001CCAF730
:1025F00029D0FE2F27D0660F771F881FBB1F2617F5
:1026000037074807AB07B0E809F0BB0B802DBF01C7
:10261000FF2793585F4F2AF09E3F510568F0B6C0E0
:1026200000C15F3FECF3983EDCF3869577956795A4
:10263000B795F7959F5FC9F7880F911D9695879578
:1026400097F90895E1E0660F771F881FBB1F621797
:1026500073078407BA0720F0621B730B840BBA0B55
:10266000EE1F88F7E095089504D06894B111D9C0A1
:102670000895BCD088F09F5790F0B92F9927B75193
:10268000A0F0D1F0660F771F881F991F1AF0BA9536
:10269000C9F712C0B13081F0C3D0B1E00895C0C015
:1026A000672F782F8827B85F39F0B93FCCF386952C
:1026B00077956795B395D9F73EF490958095709589
:1026C00061957F4F8F4F9F4F0895E89409C097FB06
:1026D0003EF490958095709561957F4F8F4F9F4FF9
:1026E0009923A9F0F92F96E9BB279395F69587953D
:1026F00077956795B795F111F8CFFAF4BB0F11F400
:1027000060FF1BC06F5F7F4F8F4F9F4F16C08823A6
:1027100011F096E911C0772321F09EE8872F762FDC
:1027200005C0662371F096E8862F70E060E02AF01D
:102730009A95660F771F881FDAF7880F9695879509
:1027400097F90895990F0008550FAA0BE0E8FEEFDE
:1027500016161706E807F907C0F012161306E40765
:10276000F50798F0621B730B840B950B39F40A265E
:1027700061F0232B242B252B21F408950A2609F43C
:10278000A140A6958FEF811D811D089597F99F6740
:1027900080E870E060E008959FEF80EC08950024E9
:1027A0000A941616170618060906089500240A94B6
:1027B00012161306140605060895092E0394000C3C
:1027C00011F4882352F0BB0F40F4BF2B11F460FFCB
:1027D00004C06F5F7F4F8F4F9F4F089557FD9058F4
:1027E000440F551F59F05F3F71F04795880F97FBD5
:1027F000991F61F09F3F79F087950895121613068F
:102800001406551FF2CF4695F1DF08C016161706BD
:102810001806991FF1CF86957105610508940895F2
:10282000E894BB2766277727CB0197F908958ADFBD
:1028300008F48FEF08950BD0C0CFB1DF28F0B6DFDA
:1028400018F0952309F0A2CFA7CF1124EACFC6DF55
:10285000A0F3959FD1F3950F50E0551F629FF001B3
:10286000729FBB27F00DB11D639FAA27F00DB11D0C
:10287000AA1F649F6627B00DA11D661F829F222795
:10288000B00DA11D621F739FB00DA11D621F839F1C
:10289000A00D611D221F749F3327A00D611D231FF2
:1028A000849F600D211D822F762F6A2F11249F5740
:1028B00050408AF0E1F088234AF0EE0FFF1FBB1F63
:1028C000661F771F881F91505040A9F79E3F510502
:1028D00070F05CCFA6CF5F3FECF3983EDCF38695BB
:1028E00077956795B795F795E7959F5FC1F7FE2BAD
:1028F000880F911D9695879597F9089523DF880B8A
:10290000990B0895A1E21A2EAA1BBB1BFD010DC055
:10291000AA1FBB1FEE1FFF1FA217B307E407F5078F
:1029200020F0A21BB30BE40BF50B661F771F881F6B
:10293000991F1A9469F760957095809590959B0101
:10294000AC01BD01CF010895EE0FFF1F0590F4917A
:08295000E02D0994F894FFCF7B
:102958000008EC01000000001D0E0610B70DEB0D7D
:10296800CB0D120E6E616E00696E66006F766600A2
:022978002E002F
:00000001FF
